{
  "_format": "hh-sol-artifact-1",
  "contractName": "SharedWallet",
  "sourceName": "contracts/SharedWallet.sol",
  "abi": [
    {
      "inputs": [],
      "stateMutability": "nonpayable",
      "type": "constructor"
    },
    {
      "stateMutability": "payable",
      "type": "fallback"
    },
    {
      "inputs": [
        {
          "internalType": "address",
          "name": "",
          "type": "address"
        }
      ],
      "name": "allowances",
      "outputs": [
        {
          "internalType": "uint256",
          "name": "",
          "type": "uint256"
        }
      ],
      "stateMutability": "view",
      "type": "function"
    },
    {
      "inputs": [],
      "name": "getBalance",
      "outputs": [
        {
          "internalType": "uint256",
          "name": "",
          "type": "uint256"
        }
      ],
      "stateMutability": "view",
      "type": "function"
    },
    {
      "inputs": [],
      "name": "owner",
      "outputs": [
        {
          "internalType": "address",
          "name": "",
          "type": "address"
        }
      ],
      "stateMutability": "view",
      "type": "function"
    },
    {
      "inputs": [
        {
          "internalType": "address",
          "name": "_user",
          "type": "address"
        },
        {
          "internalType": "uint256",
          "name": "_amount",
          "type": "uint256"
        }
      ],
      "name": "setAllowance",
      "outputs": [],
      "stateMutability": "nonpayable",
      "type": "function"
    },
    {
      "inputs": [
        {
          "internalType": "address payable",
          "name": "_to",
          "type": "address"
        },
        {
          "internalType": "uint256",
          "name": "_amount",
          "type": "uint256"
        }
      ],
      "name": "withdraw",
      "outputs": [],
      "stateMutability": "nonpayable",
      "type": "function"
    },
    {
      "stateMutability": "payable",
      "type": "receive"
    }
  ],
  "bytecode": "0x608060405234801561001057600080fd5b50336000806101000a81548173ffffffffffffffffffffffffffffffffffffffff021916908373ffffffffffffffffffffffffffffffffffffffff160217905550610905806100606000396000f3fe60806040526004361061004e5760003560e01c806312065fe0146100575780632b603c7114610082578063310ec4a7146100bf5780638da5cb5b146100e8578063f3fef3a31461011357610055565b3661005557005b005b34801561006357600080fd5b5061006c61013c565b6040516100799190610732565b60405180910390f35b34801561008e57600080fd5b506100a960048036038101906100a4919061058f565b610144565b6040516100b69190610732565b60405180910390f35b3480156100cb57600080fd5b506100e660048036038101906100e191906105f4565b61015c565b005b3480156100f457600080fd5b506100fd610232565b60405161010a91906106b7565b60405180910390f35b34801561011f57600080fd5b5061013a600480360381019061013591906105b8565b610256565b005b600047905090565b60016020528060005260406000206000915090505481565b60008054906101000a900473ffffffffffffffffffffffffffffffffffffffff1673ffffffffffffffffffffffffffffffffffffffff163373ffffffffffffffffffffffffffffffffffffffff16146101ea576040517f08c379a00000000000000000000000000000000000000000000000000000000081526004016101e190610712565b60405180910390fd5b80600160008473ffffffffffffffffffffffffffffffffffffffff1673ffffffffffffffffffffffffffffffffffffffff168152602001908152602001600020819055505050565b60008054906101000a900473ffffffffffffffffffffffffffffffffffffffff1681565b8060008054906101000a900473ffffffffffffffffffffffffffffffffffffffff1673ffffffffffffffffffffffffffffffffffffffff163373ffffffffffffffffffffffffffffffffffffffff1614806102f0575080600160003373ffffffffffffffffffffffffffffffffffffffff1673ffffffffffffffffffffffffffffffffffffffff1681526020019081526020016000205410155b61032f576040517f08c379a0000000000000000000000000000000000000000000000000000000008152600401610326906106d2565b60405180910390fd5b81471015610372576040517f08c379a0000000000000000000000000000000000000000000000000000000008152600401610369906106f2565b60405180910390fd5b60008054906101000a900473ffffffffffffffffffffffffffffffffffffffff1673ffffffffffffffffffffffffffffffffffffffff163373ffffffffffffffffffffffffffffffffffffffff16146103d0576103cf338361041c565b5b8273ffffffffffffffffffffffffffffffffffffffff166108fc839081150290604051600060405180830381858888f19350505050158015610416573d6000803e3d6000fd5b50505050565b8060008054906101000a900473ffffffffffffffffffffffffffffffffffffffff1673ffffffffffffffffffffffffffffffffffffffff163373ffffffffffffffffffffffffffffffffffffffff1614806104b6575080600160003373ffffffffffffffffffffffffffffffffffffffff1673ffffffffffffffffffffffffffffffffffffffff1681526020019081526020016000205410155b6104f5576040517f08c379a00000000000000000000000000000000000000000000000000000000081526004016104ec906106d2565b60405180910390fd5b81600160008573ffffffffffffffffffffffffffffffffffffffff1673ffffffffffffffffffffffffffffffffffffffff1681526020019081526020016000206000828254610544919061075e565b92505081905550505050565b60008135905061055f8161088a565b92915050565b600081359050610574816108a1565b92915050565b600081359050610589816108b8565b92915050565b6000602082840312156105a157600080fd5b60006105af84828501610550565b91505092915050565b600080604083850312156105cb57600080fd5b60006105d985828601610565565b92505060206105ea8582860161057a565b9150509250929050565b6000806040838503121561060757600080fd5b600061061585828601610550565b92505060206106268582860161057a565b9150509250929050565b61063981610792565b82525050565b600061064c60168361074d565b91506106578261080f565b602082019050919050565b600061066f60148361074d565b915061067a82610838565b602082019050919050565b6000610692600d8361074d565b915061069d82610861565b602082019050919050565b6106b1816107d6565b82525050565b60006020820190506106cc6000830184610630565b92915050565b600060208201905081810360008301526106eb8161063f565b9050919050565b6000602082019050818103600083015261070b81610662565b9050919050565b6000602082019050818103600083015261072b81610685565b9050919050565b600060208201905061074760008301846106a8565b92915050565b600082825260208201905092915050565b6000610769826107d6565b9150610774836107d6565b925082821015610787576107866107e0565b5b828203905092915050565b600061079d826107b6565b9050919050565b60006107af826107b6565b9050919050565b600073ffffffffffffffffffffffffffffffffffffffff82169050919050565b6000819050919050565b7f4e487b7100000000000000000000000000000000000000000000000000000000600052601160045260246000fd5b7f496e73756666696369656e7420616c6c6f77616e636500000000000000000000600082015250565b7f496e73756666696369656e742062616c616e6365000000000000000000000000600082015250565b7f4e6f7420746865206f776e657200000000000000000000000000000000000000600082015250565b61089381610792565b811461089e57600080fd5b50565b6108aa816107a4565b81146108b557600080fd5b50565b6108c1816107d6565b81146108cc57600080fd5b5056fea26469706673582212203fcd1735bc69d818ae6a6238d29a6766c2f7c39f383f1d066adadb6df2bfa3aa64736f6c63430008040033",
  "linkReferences": {},
  "deployedLinkReferences": {}
}